:020000041003E7
:10200000C0A80066210000002200000000000000BF
:1020100000000000000000000000000000000000C0
:020000041004E6
:10000000C8E00020B555051081680510836805100B
:1000100085680510876805108968051000000000D4
:10002000000000000000000000000000395F041024
:100030008B68051000000000E15E04103B370410DF
:100040008D660510956605109D660510A566051060
:10005000AD660510B5660510BD660510C5660510D0
:10006000CD660510D5660510DD660510E566051040
:10007000ED660510F5660510FD66051005670510AF
:100080000D67051079680510796805107968051005
:100090007968051079680510796805107968051088
:1000A000156705101D670510256705102D670510DC
:1000B000356705103D67051079680510456705101F
:1000C0004D670510556705105D67051065670510DC
:1000D0006D67051079680510273C04100B3C04106F
:1000E0007968051079680510796805107968051038
:1000F000756705107D670510856705108D6705100C
:100100007968051079680510796805107968051017
:100110007968051079680510796805107968051007
:1001200079680510796805107968051079680510F7
:1001300079680510796805107968051079680510E7
:1001400079680510956705107968051079680510BC
:1001500079680510796805107968051079680510C7
:100160007968051079680510193C04109D67051021
:10017000A5670510AD670510B5670510BD670510CB
:10018000C56705107968051079680510796805104C
:100190007968051079680510796805107968051087
:1001A0007968051079680510796805107968051077
:1001B0007968051079680510CD670510D5670510B9
:1001C000DD670510E5670510ED670510F56705109B
:1001D000FD67051017360510273605103736051050
:1001E0007968051079680510796805107968051037
:1001F0007968051079680510796805107968051027
:1002000079680510796805103540041005680510F7
:100210000D680510156805101D6805102568051086
:100220002D68051079680510796805107968051042
:1002300079680510796805107968051079680510E6
:1002400079680510796805107968051079680510D6
:1002500079680510796805107968051079680510C6
:1002600079680510796805107968051079680510B6
:1002700079680510796805107968051079680510A6
:100280007968051079680510796805107968051096
:100290007968051079680510796805107968051086
:1002A0007968051079680510796805107968051076
:1002B0007968051079680510796805107968051066
:1002C0007968051079680510796805107968051056
:1002D0007968051079680510796805107968051046
:1002E0007968051079680510796805107968051036
:1002F0007968051079680510796805107968051026
:100300007968051079680510796805107968051015
:100310007968051079680510796805107968051005
:1003200079680510796805107968051079680510F5
:1003300079680510796805107968051079680510E5
:1003400079680510796805107968051079680510D5
:1003500079680510796805107968051079680510C5
:1003600079680510796805107968051079680510B5
:1003700079680510796805107968051079680510A5
:100380007968051079680510796805107968051095
:100390007968051079680510796805107968051085
:1003A0007968051079680510796805107968051075
:1003B0007968051079680510796805107968051065
:1003C0007968051079680510796805107968051055
:1003D0007968051079680510796805107968051045
:1003E0007968051079680510796805107968051035
:1003F000796805107968051079680510FFFFFFFF1F
:1004300000000000000000000000000000000000BC
:1004400000000000000000000000000000000000AC
:10045000BFF34F8FDFF84C160A6812F4E062DFF842
:10046000480602430A60BFF34F8F00BFFDE74160BB
:100470007047816070470069C84010F00100704704
:1004800010B450F8213033F470631400E4B2240245
:1004900014F47064234340F8213010BC704738B521
:1004A00084B004000D0048F2050000900195012081
:1004B0008DF8080001208DF8090001208DF80A0050
:1004C00000208DF80B0000208DF80C0069462000FC
:1004D00001F0C6FB05B030BD38B584B004000D0096
:1004E00048F205000090019501208DF808000120D8
:1004F0008DF8090000208DF80A0000208DF80B000F
:1005000000208DF80C006946200001F0A9FB05B021
:1005100030BDF8B504000D001600DFF890754FF6F9
:10052000FF713868FFF7D8FF32002100386801F00A
:10053000AFFB386801F0CAFB0700380080B2A84260
:100540000CD0390089B2DFF86C0501F015FD2900E7
:10055000DFF85C0501F010FD012000E00020F2BD95
:100560002DE9F84F04000D0016001F00DDF828806B
:10057000DDF82C90657028000012207084F804903B
:1005800048460012E07048460014A07084F80780C6
:1005900040460012A071404600146071A6723000FF
:1005A000001260723000001420725FF0000AB24541
:1005B00007DA17F80A0004EB0A01C8721AF1010AF7
:1005C000F5E7DFF8E8B44FF6FF71DBF80000FFF75E
:1005D00083FF16F10B022100DBF8000001F058FB4D
:1005E000DBF8000001F072FB04EB06010873010068
:1005F00089B2090A04EB0602D172BDE8F18F70B529
:1006000004000D000026DFF8B0146078227850EA6C
:10061000022008602079E27850EA0220A27850EAAD
:1006200002404860E079A27950EA0220627950EAFB
:1006300002408860A07A627A50EA0220227A50EA68
:100640000240C86014F10B000861C8682044007BB8
:10065000CA682244D27A50EA022048618868002899
:1006600007D10120DFF8542410700120DFF8502456
:100670001070CA680B3249692000FFF74AFF002852
:1006800001D0012000E0E07AC0B270BD2DE9F74F43
:1006900084B004001D0000208DF80C009DF81800A7
:1006A000002840F08880DFF810646078217850EAF4
:1006B000012030602079E17850EA0120A17850EAE9
:1006C00001407060E079A17950EA0120617950EA37
:1006D0000140B060A07A617A50EA0120217A50EAA4
:1006E0000140F06014F10B0030610598204410F8CF
:1006F000010C0599214411F8021C50EA0120706197
:10070000B068002807D10120DFF8B013087001207D
:10071000DFF8AC130870059A921E71692000FFF78C
:10072000F8FE002812D001273800C0B231690860F5
:100730000E201099086001200190B0680090336984
:10074000012231682800FFF70BFF31E0DFF87483E6
:100750000295CDF8048070680090B3683269F16842
:10076000306800F0BDF907005FF000094846C0B2EC
:10077000D8F8001088420ADA4846C0B2285C3169CD
:100780004A46D2B241F8220019F10109EEE7D8F841
:1007900000000D3010990860D8F800000190B06892
:1007A00000903369D8F8002031682800FFF7D8FEA0
:1007B000FFB2380073E19DF81800012840F06E8107
:1007C000DFF8D46C3078002803D0BF480068652873
:1007D0000ED3BD4F002038600020BC4908600120C6
:1007E0003070BB48006802F0A5F80020386018E0BF
:1007F000B6480168083101600168082909D1A1786B
:100800000D31627851EA0221227851EA0241B14A5F
:100810001160B049026808320B689A4201DB09682E
:100820000160AC4FDFF8A482D8F800003968884234
:1008300027DAA9482178D8F8002081546178D8F8BF
:10084000002002445170A178D8F800200244917031
:10085000E178D8F800200244D1702179D8F800203E
:10086000024411716179D8F8002002445171A179D4
:10087000D8F8002002449171E179D8F800201044A2
:10088000C171D8F80000396888424FD10820396812
:100890003A6892FBF0F200FB1210002828D18E4833
:1008A0002178D8F8002081546178D8F800200244DB
:1008B0005170A178D8F8002002449170E178D8F8FE
:1008C00000200244D1702179D8F80020024411712F
:1008D0006179D8F8002002445171A179D8F800203C
:1008E00002449171E179D8F800201044C1711DE0F3
:1008F0007A493868082290FBF2F0C0000860386836
:100900000A68904212D3082238683B6893FBF2F3DE
:1009100002FB13023868121A08688218A05C6E4A3B
:100920000B68D0540868401C0860E8E7D8F800005D
:100930003968884240F0AF806548006801F073FF75
:100940000020614908600020C8F80000624BDFF811
:1009500068915878197850EA0120C9F80000187990
:10096000D97850EA0120997850EA0140C9F804008A
:10097000D879997950EA0120597950EA0140C9F8AB
:100980000800987A597A50EA0120197A50EA014011
:10099000C9F80C0013F10B00C9F8100038681844AE
:1009A00010F8010C3968194411F8021C50EA0120B2
:1009B000C9F81400D9F80800002802D101204049E4
:1009C00008703A68921ED9F814101800FFF7A1FDBC
:1009D00000281CD0002030700020C8F800005FF014
:1009E00001084046C0B2D9F8101008600E201099D6
:1009F000086001200190D9F808000090D9F8103063
:100A00000122D9F800102800FFF7AAFD3AE0DFF82C
:100A1000B4A00295CDF804A0D9F804000090D9F84C
:100A20000830D9F81020D9F80C10D9F8000000F0DF
:100A300057F880465FF0000B5846C0B2DAF8001055
:100A400088420BDA5846C0B2285CD9F810105A46D2
:100A5000D2B241F822001BF1010BEDE7DAF80000F9
:100A60000D3010990860DAF800000190D9F80800FC
:100A70000090D9F81030DAF80020D9F800102800DA
:100A8000FFF76EFD40F20D403860002030705FFAD5
:100A900088F8404603E0002010990860002007B065
:100AA000BDE8F08F0CED00E00400FA0530000020F6
:100AB000A4570510F05B0510F0CC0020AFD000204B
:100AC000B0D0002060CF002058CF002054CF0020AD
:100AD00068CF002034000020D4C100205CCF00206B
:100AE0002DE9F34FBBB014001D00479E489F202105
:100AF00000220DF1CC08404602F01EFD00208DF8CA
:100B00000800202100220DF1AC08404602F014FD3F
:100B1000202100220DF18C08404602F00DFD20211D
:100B200000220DF16C08404602F006FDDFF86C096A
:100B300000683B9988420AD1DFF864090068A8423E
:100B400005D1002038700120306000F0CABF3B980A
:100B5000002854D0401E50D0401E70D0401E00F0DF
:100B6000CD80401E00F0CC80401E00F0CB80401EA7
:100B700000F0F080801E00F0EF80401E00F0EE805C
:100B8000401E00F0ED80401E00F05881401E00F035
:100B90007D81401E00F07E81401E00F0D881401E05
:100BA00000F0418240F2F131401A00F0A882401E6C
:100BB00000F0F082401E00F03883401E00F00C84EC
:100BC000401E00F0F084401E00F02F85401E00F013
:100BD0007885401E00F0C085401E00F00886401E4B
:100BE00000F04E86401E00F09486401E00F0DA862B
:100BF000401E00F0208700F06BBF00F072BF0021A4
:100C000000200100C9B2082909DADFF898180200AB
:100C1000D2B2895C0200D2B2B954401CF1E708217B
:100C200031600021DFF82C2E11700021DFF87828C8
:100C300011700021DFF86028117000F052BF002011
:100C40005FF00008B8F5006F0AD25FF0805050F8EE
:100C50002800DFF8581841F8280018F10108F1E7DA
:100C6000DFF848980120C9F808047FF00300C9F8AC
:100C70000C0402F032FD4FF4005249465FF0805000
:100C800002F0E6FE002825D0DFF8240801F074F910
:100C90000020DFF8C01D08700020DFF80C18087075
:100CA0000020DFF8F417087002203870012030604F
:100CB0000120DFF8381E08700020DFF8341E0870AD
:100CC0000020DFF8301E08700020DFF82C1E0870AE
:100CD00000F007BF0020DFF87C1D08700020DFF85F
:100CE000C81708700020DFF8B017087000203870AF
:100CF0000120306002F00BFD00F0F3BE00F0F1BE09
:100D000000F0EFBE0020DFF84C1D08700020DFF877
:100D1000981708700020DFF880170870DFF8DC0DE6
:100D200000783870DFF8D80D00787870DFF8D40DCF
:100D30000078B870DFF8D00D0078F870DFF8CC0DCF
:100D400000783871DFF8C80D0078787106203060BF
:100D500000F0C7BE00F0C5BE00F0C3BE00F0C1BECB
:100D6000202100220DF14C08404602F0E5FB02F084
:100D7000B4FC0DF14C08DFF89C0D0068C8F81800B1
:100D8000DFF8940D0068C8F81400DFF8900D0068D3
:100D9000C8F81000DFF8880D0068C8F80C00DFF80C
:100DA000840D0068C8F80800DFF87C0D0068C8F8FA
:100DB000040020681390DFF8749D5FF0FF3148460F
:100DC000FFF76DFB1C2213A9484600F061FF48465F
:100DD00000F07CFFC8F81C00202213A9DFF8500D9A
:100DE00002F036FE002815D0DFF8480D01F0C4F8F7
:100DF0000020DFF8601C08700020DFF8AC160870D7
:100E00000020DFF89416087002203870012030604E
:100E100000F067BE02F07BFC0020DFF8381C087091
:100E20000020DFF8841608700020DFF86C160870C8
:100E3000002038700120306000F053BE0020DFF841
:100E4000141C08700020DFF8601608700020DFF81E
:100E500048160870DFF8E00C00783870DFF8DC0C1A
:100E600000787870DFF8D80C0078B870DFF8D40C10
:100E70000078F870DFF8D00C00783871DFF8CC0C0F
:100E8000007878710620306000F02BBEFFF7E0FAA2
:100E900000F027BE00205FF00008B8F5006F0AD20E
:100EA0005FF0805050F82800DFF8001641F8280065
:100EB00018F10108F1E7DFF8F4955FF0FF30C9F8A9
:100EC00008047FF00100C9F80C04FF20DFF81C1CA7
:100ED0000870DFF81C1C0870DFF8181C0870DFF8B9
:100EE000181C087002F0F9FB4FF4005249465FF0FD
:100EF000805002F0ADFD002815D0DFF8B40501F0F8
:100F00003BF80020DFF84C1B08700020DFF8981534
:100F100008700020DFF8801508700220387001206A
:100F2000306000F0DEBD0020DFF8281B08700020D4
:100F3000DFF8741508700020DFF85C1508700020D9
:100F400038700120306002F0E2FB00F0CABD2021C1
:100F500000220DF12C08404602F0EEFA02F0BDFB33
:100F60000DF12C080020C8F818000020C8F8140063
:100F70000020C8F810000020C8F80C00DFF8A40B0F
:100F80000068C8F808002068C8F8040098F8040051
:100F900000F0FF00C8F80400DFF8940B00680B9025
:100FA000DFF8889B5FF0FF314846FFF778FA1C2294
:100FB0000BA9484600F06CFE484600F087FEC8F8D2
:100FC0001C0020220BA9DFF8680B02F041FD00286D
:100FD00015D0DFF8600B00F0CFFF0020DFF8741AA7
:100FE00008700020DFF8C01408700020DFF8A81493
:100FF0000870022038700120306000F072BD02F0ED
:1010000086FB0020DFF84C1A08700020DFF89814E7
:1010100008700020DFF8801408700020387001206C
:10102000306000F05EBD202100220DF10C0840462A
:1010300002F082FA02F051FB0DF10C080020C8F812
:1010400018000020C8F814000020C8F81000002084
:10105000C8F80C002068C8F8080098F8080000F0EC
:10106000FF00C8F80800DFF8C00A0068C8F80400EC
:10107000DFF8BC0A00680390DFF8B09A5FF0FF3138
:101080004846FFF70CFA1C2203A9484600F000FE70
:10109000484600F01BFEC8F81C00202203A9DFF818
:1010A000900A02F0D5FC002815D0DFF8880A00F07D
:1010B00063FF0020DFF89C1908700020DFF8E813B8
:1010C00008700020DFF8D01308700220387001206B
:1010D000306000F006BD02F01AFB0020DFF8741942
:1010E00008700020DFF8C01308700020DFF8A81394
:1010F0000870002038700120306000F0F2BCDFF88A
:10110000509A46980190009523003C9A0721484642
:10111000FFF726FADFF83C8A002088F80000002359
:101120004FF4FA720021484602F07DFE98F8000064
:101130000028FBD0002088F8000000234FF4FA724A
:10114000002119F5FA7002F06EFE98F800000028F0
:10115000FBD0002088F8000000232522002119F58B
:101160007A7002F060FE98F800000028FBD00020A2
:1011700088F8000000203870012030600020DFF87F
:10118000D41808700020C84908700020C2490870AF
:1011900000F0A7BCDFF8B8994698019000952300AD
:1011A0003C9A07214846FFF7DBF9DFF8A8890020C1
:1011B00088F8000001234FF4FA720021484602F03B
:1011C00032FE98F800000028FBD0002088F80000CC
:1011D00001234FF4FA72002119F5FA7002F023FE90
:1011E00098F800000028FBD0002088F800000123B8
:1011F0002522002119F57A7002F015FE98F80000FA
:101200000028FBD0002088F800000120306000207A
:1012100038700020DFF83C1808700020A2490870E0
:1012200000209D49087000F05CBC5FF00008DFF80A
:10123000209946980190009523003C9A0121484648
:10124000FFF78EF9DFF80CA900208AF800000023D0
:101250004FF4FA720021484602F0E5FD9AF80000CA
:101260000028FBD000208AF8000000234FF4FA7217
:10127000002119F5FA7002F0D6FD9AF80000002856
:10128000FBD000208AF8000000232522002119F558
:101290007A7002F0C8FD9AF800000028FBD0002008
:1012A0008AF8000001221021DFF8AC08FFF7E8F807
:1012B000DFF8A8B8DFF8A8281021584603F030F965
:1012C0005FF480315846FFF7D4F8DFF898281021F2
:1012D000584603F025F94046C0B2002805D1102138
:1012E0005846FFF7C8F88046F5E74046C0B20128E7
:1012F00005D110215846FFF7BEF88046F5E70222D7
:101300001021DFF85408FFF7BBF8DFF8542810214C
:10131000584603F005F900208AF80000DFF848B8C5
:1013200000234FF4FA725946484602F07CFD9AF8C1
:1013300000000028FBD000208AF8000000234FF4B2
:10134000FA721BF5FA71484602F06DFD9AF800003A
:101350000028FBD000208AF80000002325221BF57E
:101360007A71484602F05FFD9AF800000028FBD031
:1013700000208AF8000040F20D415846FFF73FF97F
:101380008DF80000DFF8E49740F20240C9F8000051
:10139000DFF8DCA74FF6FF71DAF80000FFF79CF8E2
:1013A0000C225946DAF8000000F072FCDAF800006E
:1013B00000F08CFCC9F814009DF800003870012082
:1013C00030600020DFF88C16087000203649087065
:1013D00000203149087084E35FF00008DFF870975F
:1013E00046980190009523003C9A01214846FFF75A
:1013F000B7F8DFF860A700208AF8000001234FF457
:10140000FA720021484602F00EFD9AF8000000280A
:10141000FBD000208AF8000001234FF4FA7200216B
:1014200019F5FA7002F0FFFC9AF800000028FBD0D2
:1014300000208AF8000001232522002119F57A7086
:1014400002F0F1FC9AF800000028FBD000208AF896
:10145000000001220321DFF81C07FFF711F8DFF875
:1014600018B7DFF8FC260321584603F059F8082185
:101470005846FEF7FEFFDFF8EC260321584603F03E
:101480004FF84046C0B2002814D103215846FEF759
:10149000F2FF8046F5E700BFB1D000203800002001
:1014A0003C00002008CF0020AFD00020748900202D
:1014B000F05E05104046C0B2012805D10321584610
:1014C000FEF7D9FF8046F5E702220321DFF8A406E4
:1014D000FEF7D6FFDFF888260321584603F020F8F0
:1014E00000208AF80000DFF880B601234FF4FA727A
:1014F0005946484602F097FC9AF800000028FBD0B5
:1015000000208AF8000001234FF4FA721BF5FA71EB
:10151000484602F088FC9AF800000028FBD0002022
:101520008AF80000012325221BF57A71484602F053
:101530007AFC9AF800000028FBD000208AF800000E
:1015400040F20D415846FFF75AF88DF80000DFF8D9
:101550001C9640F20340C9F80000DFF814A64FF6CD
:10156000FF71DAF80000FEF7B7FF0C225946DAF8EF
:10157000000000F08DFBDAF8000000F0A7FBC9F8CE
:1015800014009DF800003870012030600020DFF862
:10159000C41408700020DFF8E41508700020DFF89C
:1015A000E01508709DE2DFF8DC95DFF8B48542466F
:1015B0000C21484602F0B4FF42460D21484602F095
:1015C000AFFF4FF480514846FEF753FF4FF40051F0
:1015D0004846FEF74EFF322001F0E9F84FF4805103
:1015E0004846FEF744FF4FF400514846FEF73FFFE0
:1015F000DFF8708542460C21484602F091FF4246D2
:101600000D21484602F08CFF012030600020387028
:101610000020DFF8401408700020DFF86015087023
:101620000020DFF85C1508705BE2DFF8249546982F
:101630000190009523003C9A06214846FEF790FF52
:10164000DFF81085002088F8000000234FF4FA72BC
:101650000021484602F0E7FB98F800000028FBD084
:10166000002088F8000000234FF4FA72002119F5D9
:10167000FA7002F0D8FB98F800000028FBD0002098
:1016800088F8000000232522002119F57A7002F065
:10169000CAFB98F800000028FBD0002088F8000062
:1016A00000203870012030600020DFF8A813087097
:1016B0000020DFF8C81408700020DFF8C414087098
:1016C0000FE2DFF88C9446980190009523003C9A35
:1016D00006214846FEF744FFDFF87884002088F8AA
:1016E000000001234FF4FA720021484602F09BFBF0
:1016F00098F800000028FBD0002088F800000123A3
:101700004FF4FA72002119F5FA7002F08CFB98F888
:1017100000000028FBD0002088F8000001232522CB
:10172000002119F57A7002F07EFB98F8000000287D
:10173000FBD0002088F800000120306000203870C5
:101740000020C44908700020DFF830140870002021
:10175000DFF82C140870C4E1DFF8F4934698019088
:10176000009523003C9A03214846FEF7F9FEDFF876
:10177000E483002088F8000000234FF4FA7200216F
:10178000484602F050FB98F800000028FBD00020EB
:1017900088F8000000234FF4FA72002119F5FA705E
:1017A00002F041FB98F800000028FBD0002088F8E8
:1017B000000000232522002119F57A7002F033FB86
:1017C00098F800000028FBD0002088F800000020D6
:1017D00038700120306000209E4908700020DFF83A
:1017E0009C1308700020DFF89813087079E1DFF887
:1017F000609346980190009523003C9A0321484647
:10180000FEF7AEFEDFF84C83002088F800000123CD
:101810004FF4FA720021484602F005FB98F80000E8
:101820000028FBD0002088F8000001234FF4FA7252
:10183000002119F5FA7002F0F6FA98F80000002875
:10184000FBD0002088F8000001232522002119F593
:101850007A7002F0E8FA98F800000028FBD0002027
:1018600088F800000120306000203870002079499D
:1018700008700020C14908700020C149087030E19B
:10188000DFF8CC9246980190009523003C9A022103
:101890004846FEF765FEDFF8BC82002088F80000AD
:1018A00000234FF4FA720021484602F0BCFA98F87F
:1018B00000000028FBD0002088F8000000234FF42F
:1018C000FA72002119F5FA7002F0ADFA98F80000EA
:1018D0000028FBD0002088F80000002325220021EA
:1018E00019F57A7002F09FFA98F800000028FBD0F2
:1018F000002088F8000000203870012030600020AF
:101900005449087000209D49087000209C490870C7
:10191000E7E0DFF83C9246980190009523003C9A5E
:1019200002214846FEF71CFEDFF82882002088F8D6
:10193000000001234FF4FA720021484602F073FAC6
:1019400098F800000028FBD0002088F80000012350
:101950004FF4FA72002119F5FA7002F064FA98F85F
:1019600000000028FBD0002088F800000123252279
:10197000002119F57A7002F056FA98F80000002854
:10198000FBD0002088F80000012030600020387073
:1019900000203049087000207849087000207849FC
:1019A00008709EE0DFF8A89146980190009523000A
:1019B0003C9A0D214846FEF7D3FDDFF898810020C0
:1019C00088F8000000234FF4FA720021484602F024
:1019D0002AFA98F800000028FBD0002088F80000C0
:1019E00000234FF4FA72002119F5FA7002F01BFA85
:1019F00098F800000028FBD0002088F800000023A1
:101A00002522002119F57A7002F00DFA98F80000ED
:101A10000028FBD0002088F800000020387001204A
:101A2000306000200B4908700020544908700020E5
:101A30005349087055E0DFF81891469801900095D9
:101A400023003C9A0D214846FEF78AFDDFF8048109
:101A500002E000BFB0D00020002088F80000012381
:101A60004FF4FA720021484602F0DDF998F80000C0
:101A70000028FBD0002088F8000001234FF4FA7200
:101A8000002119F5FA7002F0CEF998F8000000284C
:101A9000FBD0002088F8000001232522002119F541
:101AA0007A7002F0C0F998F800000028FBD00020FE
:101AB00088F8000001203060002038700020324992
:101AC000087000202D49087000202D49087008E09A
:101AD0003B992E4800F050FA0320387003208DF80F
:101AE000080000203DB0BDE8F08F00BF13000240A9
:101AF00012000240110002401000024030040410A5
:101B000031040410320404103304041034040410AB
:101B100035040410182003101420031010200310A3
:101B20000C200310082003100420031000200340A1
:101B300000200310085F051030040010310400106D
:101B40003204001033040010340400103504001077
:101B50003CB90020B7D0002000D0044000F10F4075
:101B600054000020A0D000202CB50020F0CC002094
:101B70003000002000B0044080F00F40AFD00020C3
:101B8000B1D00020C0F00F40B0D00020205F051081
:101B90003D4911EB10410A68012383401A430A6052
:101BA0007047C0B2002801D0022000E00320C0B27C
:101BB0007047C0B2002801D0022000E00020C0B26F
:101BC00070474B7A0A7A120712F0405252EA837237
:101BD0008B7A52EA8362CB7A1B0613F080731A4326
:101BE00082600B68436052F0007383604B6803604F
:101BF000826070473EB504000D0028680090686858
:101C00000190687AFFF7D5FF8DF80800287AFFF772
:101C1000C8FF8DF80900A87A8DF80A00E87A8DF8D7
:101C20000B0069462000FFF7CCFF37BD3EB504002E
:101C30000D00286800906868019000208DF8080069
:101C4000287AFFF7AEFF8DF8090000208DF80A0012
:101C5000E87A8DF80B0069462000FFF7B2FF37BD28
:101C600038B504000D000948FFF792FF287B0028D3
:101C700004D129002000FFF7BDFF03E02900200068
:101C8000FFF7D4FF31BD00000070044012003C108B
:101C900010B4002A08D011F00303002B04D00B78F5
:101CA0000370491C521EF4E70C00042A04D3236875
:101CB0000360241D121FF8E72300002A04D01978BE
:101CC00001705B1C521EF8E710BC704701000868E9
:101CD0008A68C2F30172022A03D3000C0004000CCC
:101CE00000E080B280B2704710B4020052B2002A05
:101CF0000AD50A01DFF8CC32040064B214F00F04F4
:101D0000234403F8042C05E00A01DFF8BC32040088
:101D100064B21A5510BC70470A00D2B2002A04D02F
:101D2000C27852F00802C27003E0C27812F0F702E3
:101D3000C27070470A00D2B2002A04D0C27852F0B2
:101D40000402C27003E0C27812F0FB02C270704756
:101D50000100C9B2302905DB0100C9B23A2901DA14
:101D6000303814E00100C9B2412905DB0100C9B2D5
:101D7000472901DA37380AE00100C9B2612905DBD9
:101D80000100C9B2672901DA573800E00020C0B26B
:101D900070472DE9F04704000D0016009946002712
:101DA0005FF0000840F2EA30864203D10120DFF8FC
:101DB0001C12087040F2EB30864246D15FF0000AF8
:101DC0005046C0B210280EDADFF80402006851460F
:101DD000C9B2405CFFF7BCFF7E495246D2B288547C
:101DE0001AF1010AECE7002007005FF00008404606
:101DF000C0B2082817DA77484146C9B251FA88F1CB
:101E0000415C4246D2B252FA88F20244527852EA17
:101E100001124146C9B242544146C9B2405C3F1822
:101E200018F10108E3E7B7F5707F02D001206A4995
:101E30000870002069490870654A694810601020E0
:101E400050606849684802F061FCBDE8F0873EB523
:101E500004000D00009401955C490878002803D027
:101E6000624800780028F7D1012008706A465D4971
:101E70005D4802F01DFC37BDF0B585B002A802F048
:101E800024FD5B48029001208DF8100001208DF8A0
:101E90001100052002F0A5FE534C020002A920000B
:101EA00002F094FC03F0C2F8524E3200002140F2DE
:101EB000031003F0D1F8504F3A0001214FF4817024
:101EC00003F0CAF8474D0197009600234B4A2900BA
:101ED000200002F0ABFB0F210020FFF705FF0F21D0
:101EE0000120FFF701FF464846490160402141605B
:101EF000374A3B481060102050600120424908706A
:101F00002900200002F002FC05B0F0BD2DE9FF41E0
:101F100004000D0016001F00DFF8F08098F80000A4
:101F2000002801D0012024E088F800603000C0B211
:101F300001281DD1C8F80440684602F0C6FC00958F
:101F40003A006946D8F8040002F040FC0121D8F8B4
:101F50000400FFF7E1FE0121D8F80400FFF7EAFED4
:101F60002B48C8F808002B48C8F80C00002000E0F7
:101F7000042004B0BDE8F0810EB430B5040023485D
:101F80000078002802D15FF0FF3006E003AD2A00A0
:101F900021000FF2110000F0FDF830BC5DF810FBDD
:101FA0000000000001B5194B1878002802D15FF03D
:101FB000FF3005E00122694658689B689847012078
:101FC00002BD000018ED00E000E400E0B3D0002006
:101FD00018CF0020B4CC0020B6D00020B5D000200F
:101FE00098CE0020D4CC002000A00640B2D0002023
:101FF00000A60E0008CD002020CD0020931D041067
:1020000010CF0020ECCA0020B4D00020A8CE0020C1
:10201000054904101D4904102DE9F84304000D0082
:1020200016001F00DDF82080A946B14508DA20001F
:10203000C0B2C0473868401C386019F10109F4E7A4
:10204000BDE8F1832DE9FF4F8BB000240B980021F0
:102050000170451C0D98002849D00C98D0E900016A
:10206000CDE90201DDE90201002906D1002804D1F1
:1020700030202870641C200089E0DDE9020100297D
:1020800002D1002800F08280DDE902010E9AD31708
:1020900003F098F8CDE90801DDE902ABDDE908239A
:1020A0000E98C117A0FB028900FB039901FB02995E
:1020B000BAEB08007BEB0901002909D506000F00E7
:1020C000F243FB43313253F10003CDE9062304E030
:1020D000303051F10001CDE90601DDE90801CDE91B
:1020E0000201DDE9060128706D1C641CC5E70C982F
:1020F000D0E90001CDE90001DDE90001002906D1A8
:10210000002804D130202870641C20003FE0DDE965
:102110000001002901D1002838D0DDE900010E9A24
:10212000D31703F071F8CDE90401DDE900ABDDE977
:1021300004230E98C117A0FB028900FB039901FB41
:102140000299BAEB08027BEB0903002B07D801D3F5
:102150000A2A04D212F1300653F100070EE09DF86E
:102160006000002802D04120002101E06120002110
:102170000A3871F10001161853EB0107DDE904017B
:10218000CDE900012E706D1C641CC0E720000FB06B
:10219000BDE8F08F2DE9F34F97B0814690465FF090
:1021A000000A00250020029000208DF80500002084
:1021B0000021CDE90801189F38780400002C00F0B8
:1021C0004982252C05D02000C8470298401C029067
:1021D0003EE201208DF804000020060000200028C7
:1021E0001FD17F1C397820290ED0232912D02B290A
:1021F00007D02D2902D0302909D00EE056F0010673
:10220000EDE756F00206EAE756F00406E7E756F077
:102210000806E4E756F01006E1E77F1E01210800FA
:10222000DDE700210391002106910698002812D1D4
:102230007F1C38780400302C09DB3A2C07DA03992C
:102240000A22B4F1300002FB01010391EDE77F1E89
:1022500001200690E9E706200790791C08782E28CF
:1022600019D100200790002006900698002813D16D
:10227000491C08780400302C09DB3A2C07DA079A4D
:102280000A23B4F1300003FB02020792EDE7491E76
:1022900001200690E9E7491E481C0178682902D010
:1022A0006C290BD015E0401C0178682903D056F04A
:1022B0004006401E01E056F020060BE0401C01786D
:1022C0006C2903D056F08006401E01E056F480765B
:1022D00000E0401E471C38780400642C12D0692CA2
:1022E00010D0662C0ED0462C0CD0782C0AD0582C4E
:1022F00008D06F2C06D0622C04D0702C02D0752C24
:1023000040F06381642C01D0692C6ED1F0050AD5B0
:1023100018F1070838F00708D8E9000118F1080893
:10232000CDE90C0106E0D8F8000018F10408C11747
:10233000CDE90C019DF8040000900A2301220CA9AC
:102340000EA8FFF77FFE05000EA828448246DDE9AF
:102350000C01002903D52D2004906D1C0DE0B00761
:1023600003D52B2004906D1C07E0700703D52020B7
:1023700004906D1C01E000200490002005903007BF
:1023800014D50498002804D00498C8470298401C2B
:10239000029001200590CDF8009002AB039A29002D
:1023A0003020FFF739FE0398050013E0F00711D441
:1023B000CDF8009002AB039A29002020FFF72CFEF5
:1023C0000498002804D00498C8470298401C029042
:1023D000012005900598002807D10498002804D012
:1023E0000498C8470298401C0290582C01D0782CC1
:1023F00076D1782C02D100208DF80400F0050AD5A2
:1024000018F1070838F00708D8E9000118F10808A2
:10241000CDE9080106E0D8F8000018F10408002111
:10242000CDE908019DF8040000901023002208A9BE
:102430000EA8FFF707FE05000EA8284482460020DC
:10244000059030071BD5F0060ED53020C8479DF803
:102450000400002801D0582000E07820C8470298E6
:10246000801C029001200590CDF8009002AB039AE9
:1024700029003020FFF7D0FD039805001DE0F0078C
:102480001BD4F00600D5AD1CCDF8009002AB039A2A
:1024900029002020FFF7C0FDF0060ED53020C847E8
:1024A0009DF80400002801D0582000E07820C8479B
:1024B0000298801C029001200590F00610D5059826
:1024C00000280DD13020C8479DF80400002801D015
:1024D000582000E07820C8470298801C0290AD1C6C
:1024E0006F2C05D0622C03D0702C01D0752C51D1EB
:1024F000F0050AD518F1070838F00708D8E90001F7
:1025000018F10808CDE9080106E0D8F8000018F134
:1025100004080021CDE90801200062280AD06F28B4
:1025200004D070280AD075280CD00EE008208DF851
:1025300005000AE002208DF8050006E010208DF865
:10254000050002E00A208DF805009DF804000090C7
:102550009DF80530002208A90EA8FFF773FD0500BD
:102560000EA82844824630070AD5CDF8009002AB69
:10257000039A29003020FFF74FFD0398050009E07A
:10258000F00707D4CDF8009002AB039A2900202071
:10259000FFF742FDBAF1000F0CD09AF800000028B6
:1025A00008D09AF80000C847BAF1010A0298401C06
:1025B0000290F2E7F0074BD5CDF8009002AB039AFA
:1025C00029002020FFF728FD42E0632C0BD1D8F82A
:1025D000000018F10408C0B20A900A98C84702988F
:1025E000401C029034E0732C2DD1D8F8000018F173
:1025F00004088346BBF1000F2AD0584602F01CFFA6
:102600000500F00707D4CDF8009002AB039A29002B
:102610002020FFF701FD9BF80000002808D09BF860
:102620000000C8471BF1010B0298401C0290F2E722
:10263000F0070DD5CDF8009002AB039A29002020B9
:10264000FFF7EAFC04E02000C8470298401C029013
:102650007F1CB1E5029819B0BDE8F08F2DE9FB4F62
:1026600082B006001700DDF838800F9CDDF840903E
:10267000DDF844A03000002807D1502080F31188F5
:10268000BFF34F8FBFF36F8FFEE7B8F1120F07D381
:10269000502080F31188BFF34F8FBFF36F8FFEE799
:1026A0004946380080B200F0FDFD0500002D61D0E4
:1026B000286B390089B200EB8100001FC008C00000
:1026C0000190019810F0070F07D0502080F3118877
:1026D000BFF34F8FBFF36F8FFEE7380080B20090DB
:1026E000534642460399280000F028FD049A310021
:1026F000019800F071FF2860002C00D0256000F0E8
:10270000ECFFDFF860150868401C0860DFF858250A
:102710001068002806D11560086801280CD100F067
:1027200045FD09E0DFF844050068002804D1106881
:10273000C06A804500D31560DFF834050168491C84
:10274000016000682864DFF82C150A680123E86A34
:1027500083401A430A60291DDFF8D025EB6A142054
:10276000434302EB030002F091FE5FF0010B00F027
:10277000CEFF01E05FF0FF3BBBF1010F13D1DFF8AB
:10278000EC04006800280ED0DFF8DC040068C06AA2
:10279000404508D25FF08050DFF818170860BFF39B
:1027A0004F8FBFF36F8F584605B0BDE8F08FF8B577
:1027B00004000025002C2AD0DFF87C0600680028E1
:1027C00007D0502080F31188BFF34F8FBFF36F8F76
:1027D000FEE700F02CF9DFF8E0060068201806009C
:1027E000DFF884743868001D02F077FE002808D1F5
:1027F0003868DFF880140A680123C06A83409A436E
:102800000A60300000F026FD00F02DF90500002DD3
:1028100008D15FF08050DFF89C160860BFF34F8F3F
:10282000BFF36F8FF1BD70B5040000F056FF002CB0
:1028300003D1DFF83404056800E02500281D02F00C
:102840004CFE00280FD1DFF8E414EA6A142042435A
:102850008858002807D1DFF81C140A680123E86AA9
:1028600083409A430A60A86A002803D015F1180033
:1028700002F033FEDFF86467291D300002F006FE27
:1028800000F045FFDFF8E0130868854227D1DFF844
:10289000DC030068002816D0DFF89C0500680028DB
:1028A00007D0502080F31188BFF34F8FBFF36F8F95
:1028B000FEE75FF08050DFF8FC150860BFF34F8F34
:1028C000BFF36F8F16E03068DFF8982312689042EC
:1028D00002D1002008600DE000F0CEF90AE0DFF838
:1028E0008C030068002805D000F0F7FE00F011FD11
:1028F00000F00DFF70BD10B4020000201300002A8C
:1029000007D1502181F31188BFF34F8FBFF36F8F31
:10291000FEE75969DFF8C446A14209D1996ADFF898
:102920007449A14204D0996A002901D1012108000B
:1029300010BC704770B504002500002C07D1502052
:1029400080F31188BFF34F8FBFF36F8FFEE7002D29
:1029500030D0DFF81463306885422BD000F0BDFE24
:102960002800FFF7C8FF012822D1281D02F0B5FD7D
:10297000DFF800130A680123E86A83401A430A60FB
:10298000291DDFF8A823EB6A1420434302EB030060
:1029900002F07CFDE86A3168C96A884208D35FF0BA
:1029A0008050DFF894170860BFF34F8FBFF36F8F2D
:1029B00000F0ADFE70BD1FB5002003900020029016
:1029C000DFF8D40801900020009000235A22DFF89D
:1029D000CC180FF2C160FFF741FE0400012C02D1B8
:1029E00002F0A6FD0400012C16D1502080F31188BE
:1029F000BFF34F8FBFF36F8F5FF0FF30DFF8A0188A
:102A000008600120DFF8641208600020DFF8A814D5
:102A1000086000F008FE09E0002C07D1502080F388
:102A20001188BFF34F8FBFF36F8FFEE71FBDDFF835
:102A300008040168491C016070478B480068C06A3F
:102A4000002801D000200DE0DFF8E0020068022835
:102A500001D3002006E0DFF848080168DFF85804D9
:102A60000068081A704770B50025DFF8CC6330683D
:102A7000002807D1502080F31188BFF34F8FBFF398
:102A80006F8FFEE700F029FE3068401E306030682E
:102A9000002851D17348006800284DD0DFF8F417A2
:102AA0000868002824D0C868C068040014F1180021
:102AB00002F013FD201D02F010FD6E490A6801238B
:102AC000E06A83401A430A60211D984AE36A142091
:102AD000434302EB030002F0D9FCE06A6249096853
:102AE000C96A8842DAD30120DFF8BC190860D5E74B
:102AF000DFF80469306800280ED0306800280BD059
:102B000000F037F8002803D00120DFF89C19086096
:102B10003068401E3060F0E7DFF88C09006801285B
:102B20000AD1012005005FF08050DFF888130860AB
:102B3000BFF34F8FBFF36F8F00F0E9FD280070BD2A
:102B4000DFF8740300687047DFF854170A68DFF88D
:102B500068130B68C3189A4207D2502181F3118879
:102B6000BFF34F8FBFF36F8FFEE70A6882180A60CA
:102B700070472DE9F0410027AF480068002862D176
:102B8000CD480168491C01600468002C1CD1DFF8A5
:102B9000B81308680068002807D0502080F3118817
:102BA000BFF34F8FBFF36F8FFEE7D1F80080DFF8E0
:102BB000280402680A60C0F80080DFF8F0080168A5
:102BC000491C016000F0A5FBDFF8D486D8F80000AE
:102BD00084423DD3DFF8701308680068002804D1F0
:102BE0005FF0FF30C8F8000032E00868C068C068D5
:102BF000050068680600B44202D2C8F8006027E009
:102C0000281D02F06AFCA86A002803D015F11800FC
:102C100002F063FC17490A680123E86A83401A43FB
:102C20000A60291D414AEB6A1420434302EB03006A
:102C300002F02CFCE86A0C490968C96A8842C9D3C9
:102C400001200700C6E7DFF8B0070168491C0160F2
:102C5000DFF854080068002801D001200700380080
:102C6000BDE8F08124D0002010D0002030D000201A
:102C700040D000202CD0002010B56F4800680028FC
:102C800004D00120DFF8201808604EE00020DFF8B3
:102C900018180860DFF8441801200860DFF84028A1
:102CA00010680B68984208D2DFF8380803681C6D7A
:102CB000086804191068241A1C6508681060DFF899
:102CC00024482068006B21680968884205D3206881
:102CD00010F13401206802F0A3FEDFF80C08006850
:102CE000B0FA80F1D1F11F011422104B02FB01F068
:102CF0001858002807D1502080F31188BFF34F8F58
:102D0000BFF36F8FFEE702FB01F203EB02004268A4
:102D100052684260426810F108039A4202D1426848
:102D2000526842604068C068206010BD6CC00020DE
:102D3000F8B504000D00002C07D1502080F3118855
:102D4000BFF34F8FBFF36F8FFEE7DFF898773868D8
:102D500010F11801200002F0A5FB3868001D02F0F8
:102D6000BCFB002808D13868DFF87C170A6801230B
:102D7000C06A83409A430A6015F1010F05D1386893
:102D8000011D964802F082FB06E04B4800682818B7
:102D90000600300000F05EFAF1BD00002DE9F041C0
:102DA00004000D001600002C07D1502080F311887C
:102DB000BFF34F8FBFF36F8FFEE71F4800680028F7
:102DC00007D1502080F31188BFF34F8FBFF36F8F6F
:102DD000FEE7DFF8108755F00040D8F80010886152
:102DE000D8F8000010F11801200002F04FFBD8F8CD
:102DF0000000001D02F071FB002809D1D8F8000086
:102E0000DFF8E4160A680123C06A83409A430A6027
:102E100016F1010F06D1D8F80000011D6F4802F02D
:102E200035FB06E02448006830180700380000F041
:102E300011FABDE8F081000048D000202DE9F041F2
:102E400004000D001600002C07D1502080F31188DB
:102E5000BFF34F8FBFF36F8FFEE7DFF88886D8F898
:102E6000000010F11801200002F010FBD8F800005B
:102E7000001D02F032FB002809D1D8F80000DFF86D
:102E800068160A680123C06A83409A430A60012ECB
:102E900006D1D8F80000011D504802F0F7FA06E00C
:102EA0000548006828180700380000F0D3F9BDE88D
:102EB000F081000004ED00E028D0002070B505008E
:102EC000E868C468002C07D1502080F31188BFF354
:102ED0004F8FBFF36F8FFEE714F1180002F0FDFA79
:102EE000DFF80C060068002815D1201D02F0F5FA65
:102EF000DFF8F4150A680123E06A83401A430A6088
:102F0000211DDFF8F025E36A1420434302EB0300A0
:102F100002F0BCFA05E014F11801DFF8780302F0C2
:102F2000B5FADFF8C0050068C06AE16A884205D2D8
:102F300001260120DFF8B415086000E0002600F04B
:102F4000E8F9300070BD000014D0002070B5050015
:102F50000E00DFF89C050068002807D1502080F3A0
:102F60001188BFF34F8FBFF36F8FFEE756F000401D
:102F70002860EC68002C07D1502080F31188BFF343
:102F80004F8FBFF36F8FFEE7280002F0A6FA201DD7
:102F900002F0A3FADFF850150A680123E06A8340C3
:102FA0001A430A60211DDFF84C25E36A14204343CD
:102FB00002EB030002F06AFADFF828050068C06A35
:102FC000E16A884205D201200121DFF82025116045
:102FD00000E0002070BD000018D0002048CE002086
:102FE000002807D1502181F31188BFF34F8FBFF321
:102FF0006F8FFEE7DFF8B41409680160DFF8F8149A
:10300000096841607047F8B504000D00002C07D135
:10301000502080F31188BFF34F8FBFF36F8FFEE70F
:10302000002D07D1502080F31188BFF34F8FBFF3DD
:103030006F8FFEE700F051FBDFF8BC0406682868DC
:1030400010F1010F01D100271AE0DFF860040068D9
:103050002168884204D06068864201D301270FE0CE
:103060006068301A2968884209D22968891B60681B
:10307000411829602000FFF7B3FF002700E0012777
:1030800000F045FB3800F2BD0120DFF86014086055
:103090007047000070B5040000F0B2F8DFF8540487
:1030A0000068022807D35FF0805023490860BFF30F
:1030B0004F8FBFF36F8F00F021FAFFF7BEFC0500C2
:1030C000022DE9D3FFF7B3FC75480068DFF8281438
:1030D0000968884207D2502080F31188BFF34F8FD0
:1030E000BFF36F8FFEE7FFF7A8FC0600022E02D3A6
:1030F000300000F079FBFFF7B6FCCDE7012201209C
:1031000064490968002902D00021080012E0DFF8B4
:1031100098130968002902D0002108000AE0DFF8AE
:10312000E0130968DFF8DC331B689B1A994201D170
:1031300002210800C0B2704704ED00E02DE9F04123
:1031400004000D0016001F005FF00008B8F10A0F20
:103150000CD215F8080004EB080181F8340015F8CA
:103160000800002802D018F10108EFE7002084F8D9
:103170003D00122E01D311200600E662A664002055
:10318000E064201D0021016114F11800002101619B
:103190002461D6F11200A061646200202065002045
:1031A0006065002084F85800BDE8F08170B5002407
:1031B000122C09D2DFF83C03142101FB04F108446E
:1031C00002F055F9641CF3E7DFF83C53280002F0E5
:1031D0004EF9DFF83863300002F049F92D4802F06B
:1031E00046F9DFF82C0302F042F9DFF8140302F08D
:1031F0003EF9DFF820030560DFF81C03066070BDB0
:1032000070B5DFF818532868002822D0FFF70FFCAC
:10321000DFF8FC623068002801D1012400E00024BE
:10322000FFF721FC002CECD100F057FAF068C668DB
:10323000301D02F052F9DFF8CC020168491E01602E
:103240002868401E286000F062FA300000F058F84C
:10325000D7E770BD10B50400DFF8880201684C6044
:10326000DFF8941209688C4207D20068011DDFF86C
:10327000A802006802F016F90BE00068011DDFF8F3
:103280009402006802F00EF9054801688C4200D2F1
:10329000046010BD20CE002020D000206C660510F8
:1032A00044D000202DE9F84307000D00002D06D181
:1032B000380080B2800002F0AAFC060000E02E0078
:1032C000002E0BD05C2002F0A2FC0400002C01D0E8
:1032D000266304E0300002F0A2FC00E00024002C91
:1032E0000BD0380080B286005FF0A508D4F830908B
:1032F00042463100484600F01FF92000BDE8F28345
:1033000010B50400206B02F08AFC200002F087FC5C
:1033100010BDDFF8002210680068002805D15FF0BA
:10332000FF30DFF80022106007E01068C068C06856
:1033300001004868DFF8EC2110607047DFF8E80111
:103340000068002801D1012007E0DFF8E0010068F3
:10335000002801D1022000E0002070472DE9F04153
:1033600004002500002C44D0DFF87881E86AD8F802
:103370000010C96A88423CD2A869002805D4D8F850
:103380000000C06AD0F11200A861DFF8686114275C
:103390006869E96A79433144884226D1281D02F0E0
:1033A0009CF800280CD1E86A78433058002807D1EF
:1033B000DFF87C110A680123E86A83409A430A60B7
:1033C000D8F80000C06AE862DFF864110A680123D7
:1033D000E86A83401A430A60291DE86A07FB00F780
:1033E00006EB070002F052F803E0D8F80000C06ACC
:1033F000E862BDE8F081000034D0002070B5040020
:1034000025000026002C4DD036480068854207D0A4
:10341000502080F31188BFF34F8FBFF36F8FFEE70B
:10342000E86C002807D1502080F31188BFF34F8F3C
:10343000BFF36F8FFEE7E86C401EE864E86AA96C92
:1034400088422FD0E86C00282CD1281D02F045F8C6
:1034500000280ED1DFF8DC10EA6A142042438858B5
:10346000002806D120490A680123E86A83409A436C
:103470000A60A86CE862E86AD0F11200A8611A49F3
:103480000A680123E86A83401A430A60291DDFF8AD
:10349000A420EB6A1420434302EB030001F0F6FF83
:1034A00001200600300070BD38D000203CD0002044
:1034B000DFF86C10086880690A680968C96AD1F188
:1034C000120191617047DFF858100868002803D096
:1034D0000868C26C521CC2640868704750D0002053
:1034E0004CD0002010D000202CD0002038D000205C
:1034F00048D000206CC0002028D00020FEE700004B
:1035000048CE002024D00020F8CD00200CCE002092
:1035100034CE002014D0002018D000201CD0002071
:1035200010D0002044D0002030D0002048D000200F
:103530002CD000206CC0002062F30F2262F31F42E7
:10354000401810F0030308D0C91A1FD3DB0748BF87
:1035500000F8012D28BF20F8022D130030B41446C6
:103560001546103928BF20E93C00FAD8490728BF82
:1035700020E90C0048BF40F8042D890028BF20F83E
:10358000022D48BF00F8012D30BC7047C91818BF84
:1035900000F8012DCB0728BF00F8012D704730B48B
:1035A000002513E050F8042BD30744BFA9F1010311
:1035B0009A18091F042942F8045BFAD213468C07B3
:1035C00044BF15809B1CC90748BF1D7050F8041BE1
:1035D0000029E7D130BC7047001F5FF080730360A3
:1035E000001F0160001F0FF2150303601438026012
:1035F000001F7FF002030360203870476E480068A8
:1036000010F1010F07D0502080F31188BFF34F8FC6
:10361000BFF36F8FFEE7502080F31188BFF34F8F09
:10362000BFF36F8FFEE7E0B564480168644A9142DA
:1036300007D1502080F31188BFF34F8FBFF36F8FF6
:10364000FEE700685F49884207D1502080F3118867
:10365000BFF34F8FBFF36F8FFEE75B480178019197
:10366000FF21017001788DF800109DF8001011F015
:103670005001564A1170564907220A609DF80020F1
:10368000120608D50A68521E0A609DF800205200F2
:103690008DF80020F2E70A6812020A600A6812F444
:1036A000E0620A60019901704A48016851F47001B2
:1036B0000160016851F07041016002F0EBFB0020F5
:1036C0003D49086002F052FC4348016851F0404116
:1036D000016002F03FFC00200EBD502080F31188F5
:1036E000BFF34F8FBFF36F8F33490A68521C0A60D4
:1036F000096801290AD139490968090606D080F309
:103700001188BFF34F8FBFF36F8FFEE770472A49D1
:103710000868002807D1502080F31188BFF34F8F2D
:10372000BFF36F8FFEE70868401E08600868002836
:1037300002D1002080F31188704780B5EFF311802B
:10374000502080F31188BFF34F8FBFF36F8FFFF7C7
:1037500010FA002803D05FF0805020490860002054
:1037600080F3118801BD0000EFF30580102811D30C
:103770001B4A1268125C11000A00144B1B78D2B26B
:103780009A4207D2502282F31188BFF34F8FBFF3C2
:103790006F8FFEE70E4A1268124B1B6813F4E0634A
:1037A0009A4207D2502282F31188BFF34F8FBFF3A2
:1037B0006F8FFEE7704700004800002000ED00E03A
:1037C00071C20F4170C20F4100E400E0BCD0002084
:1037D0000CD0002020ED00E034EF00E004ED00E02C
:1037E000746805100CED00E02DE9FE4F04004B4815
:1037F0000168A14201D200680400002C00F08B8017
:10380000474F3868400840003860DFF81881DFF81B
:103810001891D9F80010D8F80060601E00FB061659
:10382000DFF808A1DAF80000B04202D2DAF80000AE
:10383000361A72B6FFF762FC00280DD13C48D9F861
:1038400000100160396851F001013960D8F80010AA
:10385000491E016062B65EE0DFF8D4B0CBF80060CC
:103860000020C9F80000386850F001003860029468
:103870000298002804D0BFF34F8F30BFBFF36F8F83
:1038800038680090009840084000386062B60098A0
:10389000C00317D5D8F80010491E891BD9F80000BD
:1038A0004118DAF80000814203D3D8F800008842BA
:1038B00003D2D8F80000401E0100CBF80010601EB3
:1038C000050015E0D8F8001001FB04F1D9F800005C
:1038D000091A01910198D8F80010B0FBF1F0050029
:1038E000691CD8F8000041430198091ACBF8001070
:1038F0000020C9F80000FFF7F0FE386850F0010022
:1039000038602800FFF720F9D8F80000401ECBF8F7
:103910000000FFF7FCFEBDE8F78F00BF04D00020D9
:1039200010E000E000D0002018E000E008D0002007
:1039300014E000E010B400206A490860BFF34F8F24
:1039400069480168C1F34E32C1F3C900030043F670
:10395000E07010EA421050EA8370644C2060180056
:10396000431E0028F3D11000421E0028ECD1BFF303
:103970004F8FBFF36F8F10BC704780B55C48FEF768
:10398000FBFAFEE72DE9F84F84B05C4E009600206C
:103990000390002002900020019064255FF0000950
:1039A000DFF8508144464A4629002000FFF7C4FD55
:1039B0005FF0080A5FF0000B514F3C005A46514639
:1039C0002000FFF7B9FD404602F0DEFA0400002CAB
:1039D00001D0FFF7D2FF380002F098FD0500002D5E
:1039E00001D0FFF7CAFF03AA0421404602F0BEFC43
:1039F00002AA0121404602F0B9FC01AA002140467A
:103A000002F0B4FC6946404602F0A8FC0400002C19
:103A100001D0FFF7B2FF00983A49884206D03A49F0
:103A2000884207D03549884208D107E03748FEF779
:103A3000A3FA03E03648FEF79FFAFFE70098B0428A
:103A400003D10121380002F071FD05B0BDE8F08F0F
:103A50002DE9FE4306000F009046FFF73EFEFFF7FC
:103A600091FFDFF89090244B42463100484602F027
:103A7000B8FB0400002C01D0FFF77FFF0123424672
:103A80003100484602F007FC0500002D01D0FFF789
:103A900074FF43463A003100484602F0CFFB040071
:103AA000002C01D0FFF769FF002002900020019058
:103AB000012000903B0042463100484602F019FCCC
:103AC0000500002D01D0FFF758FF00210C4802F03F
:103AD0002DFDFFF72FFFFFF71AFE0020BDE8FE8344
:103AE0000000000084ED00E080ED00E074EF00E0F5
:103AF000904D051028CA00206B66656B3CC33CC323
:103B000048CF0020A55AA55AA53CC35ABC4D051064
:103B1000E84D051010B4020052B2002A0AD50A017D
:103B2000DFF8D831040064B214F00F04234403F822
:103B3000042C05E00A01DFF8F433040064B21A55DE
:103B400010BC704710B50400601EB0F1807F01D337
:103B5000012011E0601EDFF8A81108600F215FF05E
:103B6000FF30FFF7D7FF0020DFF89811086007202B
:103B7000DFF8BC130860002010BD41607047816011
:103B8000704710B41300DBB2002B09D0B0F88831B5
:103B90000C00E4B214F00F042343A0F8883109E0CC
:103BA000B0F888310C00E4B2240114F0F00423438F
:103BB000A0F8883110BC7047425C52F08002425439
:103BC000704710B4445C14F0C00412F03F031C436F
:103BD000445410BC7047026832F018020B00DBB28C
:103BE000DB0013F018031A430260704710B450F85A
:103BF000213033F470631400E4B2240214F47064CE
:103C0000234340F8213010BC704780B50821DFF80D
:103C1000E80302F0B3FC01BD80B50821DFF84C04D5
:103C200002F0ACFC01BD80B5DFF844040088C0059B
:103C300031D5DFF84004018811F00101012908DBCA
:103C4000DFF83414CA68521CCA600321DFF82C2440
:103C5000D170018811F00401012908DBDFF8181484
:103C60000A69521C0A610321DFF8102411710088CF
:103C700010F00200012808DBDFF8FC030168491C92
:103C800001600320DFF8F41308700221DFF86803F5
:103C900002F074FC30E0DFF8E813088810F0080048
:103CA000012808DBDFF8D0034268521C4260032081
:103CB000DFF8C8235070088810F00400012808DBE2
:103CC000DFF8B4038268521C82600320DFF8AC2363
:103CD0009070088810F00200012808DBDFF89803D4
:103CE0004169491C41610320DFF8901348710221AA
:103CF000DFF8780302F042FC01BD000018ED00E09F
:103D000014E000E018E000E030B4002A03D1012400
:103D1000DFF8E0562C7030BC70472DE9F84F8AB0C0
:103D20000024012009900225DFF80463300002F02E
:103D30006AFC4FF4887221003000FFF742FF210037
:103D40003000FFF739FF40F2111229003000FFF771
:103D500038FF29003000FFF72FFF03A802F0FDFC19
:103D6000DFF8946603A9300002F0D8FCDFF88C0677
:103D700000210170DFF88816416008218160002170
:103D8000017300214173002181734FF47A71016145
:103D9000416181610020DFF85C16087018200890EE
:103DA00000200790DFF85C76B846079A08994046ED
:103DB000FFF7C2FB1820069000200590DFF8488628
:103DC000C146059A06994846FFF7B6FB18200490AD
:103DD0005FF00009DFF834A6D3464A4604995846F6
:103DE000FFF7AAFB22003100380002F09CFD099A7F
:103DF0003100404602F097FD2A003100504602F0A3
:103E000092FDCDF808A0CDF8048000970023DFF8DC
:103E10000026DFF80016DFF8000603F0C9F90BB042
:103E2000BDE8F08F00002DE9FF4704000D001600EB
:103E30001F000094019502963800C0B2002831D1CD
:103E400002221021DFF8A805FFF7D0FE012203218E
:103E5000DFF8C805FFF7CAFE5FF480100390DFF8B3
:103E60009C85012088F81C00012088F81D00002096
:103E700088F81E00002088F81F00002088F8200025
:103E8000002088F82100DFF89895052000F0A9FEB1
:103E9000C9F80000D9F800204146DFF87C0503F09E
:103EA0001DFD33E002220321DFF87005FFF79EFEBF
:103EB00001221021DFF83805FFF798FE5FF0101897
:103EC000CDF80C80DFF83495022089F81C00012021
:103ED00089F81D00002089F81E00002089F81F00C5
:103EE000002089F82000002089F82100DFF830A5A3
:103EF000052000F076FECAF80000DAF800204946F6
:103F0000DFF8140503F0EAFCCDF80C806A46DFF810
:103F10000415DFF8040503F071F9002803D0DFF879
:103F20000405FEF729F8BDE8FF87000000E400E083
:103F300010E000E02DE9F04104000D0016001F0024
:103F4000DFF8E4840120C8F8000041F2B540864261
:103F50000CD1082F0AD10120DFF8D0140870DFF847
:103F6000D0040178012901D10021017041F2B8404B
:103F700086423ED1092F3CD10120DFF8B8140870E9
:103F8000DFF8B4040168491C0160DFF8B014DFF801
:103F9000B004C27A0A70827A4A70427A8A70027ACF
:103FA000CA70C27B0A71827B4A71427B8A71027B32
:103FB000CA71DFF89024106009201071DFF88814AE
:103FC000DFF8880404F06EF94146DFF884040068E5
:103FD00004F0B5FCD8F80000012808D15FF080504B
:103FE000DFF870140860BFF34F8FBFF36F8F0020AE
:103FF0000600BDE8F081000000C0054010B5DFF804
:104000005C04018851F480710180018851F0100135
:104010000180DFF84C445FF400320021200004F0FE
:10402000FDFE012201212000FFF7ABFD10BD0000C5
:104030000010024080B503201049C870DFF81C143E
:104040000A884FF2FF6002400A8001210D48FFF705
:1040500096FD0120DFF80C140871FFF7CFFFDFF8A1
:104060000804018851F00801018001BD00C00D4025
:1040700012C0054018C0054068CD002040CF002088
:1040800018C00D4000F10F402DE9F047A0B001F03D
:1040900097FDDFF8D843200004F0D6FE60680021C9
:1040A000CDE90801DDE9080101000020CDE90801A2
:1040B000DDE90823A068002110431943CDE9080178
:1040C00008AC0020082805DA215CDFF8A42311548D
:1040D000401CF7E7012500208DF818008DF81950D5
:1040E000DFF8900300788DF81A0000208DF81B008F
:1040F000DFF8846304F006FF05F025F905F074F994
:10410000FDF7BAFEFFF73EFCFFF707FE1AA805F021
:10411000ACFADFF868731AA9380005F05EFA0520DA
:1041200000F05FFD0190D64800900123012206A90E
:10413000380005F0B3FA01213800FFF74CFD04F018
:10414000BBFE01220921CF48FFF750FD42F2107754
:10415000380005F043F9DFF83083CC4A09214046A6
:1041600000F0DEF94FF400714046FFF706FD38001D
:1041700005F034F94FF400714046FFF700FD3800B8
:1041800005F02CF94FF400714046FFF7F6FCC048EB
:1041900005F024F9FFF7A1FA3068400840003060CC
:1041A00044F62060FFF7CEFC2021002212AF380039
:1041B000FFF7C2F9202100220AAF3800FFF7BCF94F
:1041C0000DF12809B3480068C9F81C00B24800681E
:1041D0001090B24800680F90B14800680E90B14846
:1041E00000680D90B04F3868C9F80800DFF8BC824D
:1041F000D8F80000C9F80400AD4800680A90DFF85C
:10420000B4A25FF0FF315046FCF749F9AA480168B3
:1042100051F4002101601C220AA95046FDF738FD27
:104220005046FDF753FD1290FFF771FAD9F81C00C4
:10423000129988420FD10A980390A04839680170FA
:104240000078400050F040409D490860D8F80000D8
:10425000814908700DE099482221017000784000E2
:1042600050F040409649086023207B4908709548EB
:1042700003907FF07F400590934804900021002038
:1042800005F0DDFB914F924802909248019000208A
:10429000009004AB05AA03A9380005F003FC380020
:1042A00005F07DFC380005F089FC05F010FD8A481A
:1042B000FDF762FE8948FDF75FFE894F3800FDF784
:1042C0005BFE9DF80F0000909DF80E309DF80D20CC
:1042D0009DF80C108348FDF74FFE9DF817000090E5
:1042E0009DF816309DF815209DF814107E48FDF7B6
:1042F00043FE9DF8130000909DF812309DF81120A8
:104300009DF810107948FDF737FEDFF84C9199F8C9
:1043100000107748FDF730FEDFF8A0A19AF80010F2
:104320007448FDF729FE3800FDF726FEDFF8C88146
:10433000404603F02EFE012088F804003048C8F8FB
:104340000000012088F80800002088F806000520F9
:1043500000F047FC3D4F02004146380003F0C1FD2C
:1043600006214B20FFF7D6FBDFF8DC800023634AF1
:104370004146380003F03BFF9AF80010380003F084
:104380003FFE5F4A01201071002050719AF8000032
:10439000106001230921380003F06BFE59490868B9
:1043A00050F400100860086830F4801008604A6813
:1043B00012F0604299F8000002434A6008200A683F
:1043C00060F313420A600020184908700122082196
:1043D000380003F022FE1B4A1948106009201071B2
:1043E0004146380003F05EFF20B0BDE8F0870000D2
:1043F00000D00440B7D000200080004090CC0020C6
:1044000040420F0080CD002098CD0020B0CD00208C
:10441000093D041024C8002000C0024000B0044040
:1044200090CF002064450510A0CF0020B8D0002018
:10443000BAD00020B9D0002098CF002030CF002083
:10444000B8CE002028CF00208CCA002000400240B7
:104450009CCF002004ED00E05A00002080310B408A
:1044600000300B4020CF00208E310B40D8CE0020F2
:1044700008CF00205C00002000D0004000900340E6
:1044800040787D0100A0044040F00F40540000201F
:1044900020A107001C200310182003101420031073
:1044A000102003100C200310082003100420031018
:1044B000002003100020034004F001405B000020B6
:1044C00094CF0020C0A80066C0A800642CCC0020B7
:1044D000D3990410E53905109C450510285C05109A
:1044E0008C470510E053051004540510285405109E
:1044F000445C051004580510FCCE0020353F041024
:1045000038CF0020C8CE00201300DBB2002B03D12F
:1045100001238B40836002E001238B40436070479E
:1045200070B504000D0016003078002805D16069D0
:104530000121A9408843606109E0727829002000C8
:10454000FFF7E2FF60690121A9400843606170BD87
:10455000C01D70470A00D2B2002A08D0C27A52F0B9
:104560008002C272C27852F08002C27007E0C27A42
:1045700012F07F02C272C27812F07F02C2707047DE
:104580000A00D2B2002A08D0C27A52F02002C272C7
:10459000C27852F02002C27007E0C27A12F0DF0245
:1045A000C272C27812F0DF02C27070472DE9F0418A
:1045B00007000C001500984626002800C0B200280D
:1045C00012D07168306800F0CFF870680068002879
:1045D0000AD07068436840F2EA3271683068D6F8F1
:1045E00004C0DCF800C0E047BDE8F0812DE9F041EF
:1045F00007000C001500984626002800C0B20028CD
:1046000012D07168306800F0BCF87068006800284B
:104610000AD07068436840F2EB3271683068D6F8AF
:1046200004C0DCF800C0E047BDE8F0812DE9FE4F92
:1046300006000F000C9D0D9C300000F0B9F880467C
:10464000DFF8609049F8386009EBC80047601C202B
:1046500000905FF0000ABB46524600995846FEF7AC
:104660006BFF02207876002038767C613D610198EE
:10467000386002987860002C01D001207075002D00
:1046800005D009EBC8020849386901604260002C76
:1046900005D009EBC8020549786901604260BDE8B0
:1046A000F78F000060CC0020AD450410ED450410EC
:1046B00070B58AB004000D001600287E012802D1D2
:1046C0004FF47A7020E0012028767068E8602000BE
:1046D000FFF73EFF03000220039070680290012064
:1046E0000190012000900122316804A802F050F9E5
:1046F00004A9286902F0C8F9286902F0A3FA012187
:104700002000FFF727FF00200AB070BD70B58AB007
:1047100004000D001600687E032802D140F2E93043
:1047200020E0032068767068A8602000FFF710FF83
:1047300001210391716802910121019101210091F0
:1047400033680122010004A802F022F904A9686973
:1047500002F09AF9686902F075FA01212000FFF76A
:104760000FFF00200AB070BD38B504000D00002115
:104770002000FFF7EFFE286902F094FA0020287667
:1047800031BD38B504000D0000212000FFF7F8FE10
:10479000686902F087FA0220687631BDDFF85812A6
:1047A00011EB10410A68012383401A430A607047E5
:1047B000010006220020904207D2DFF8403253F871
:1047C00020308B4201D0401CF5E770472DE9F047BF
:1047D00004000D00160000205FF0000A00212A6886
:1047E0001201B6FBF2F73A0092B2002A01D1012081
:1047F000070070012A681201B0FBF2F8380080B29D
:10480000B8EB401870003A0092B2520112FA88F2E6
:10481000B0FBF2F0D5F80090B0EB090928686422EB
:10482000B0FBF2F2032042434A4502D240F2F53097
:1048300049E02000FFF7BCFFDFF8C41151F8200069
:10484000FFF7ACFFE07810F0F300E070217811F092
:10485000E001380080B2000A014321706770A17A3C
:1048600011F0E00118F01F000143A172A17811F0CE
:10487000EC012879002803D0287950F0100001437A
:10488000A170207810F0DF006A79520112F0200246
:1048900010432070A879E074E8796075207C50F0AE
:1048A00088002074607C50F0C0006074E278287A40
:1048B000002801D052F00802687A002801D052F096
:1048C0000402E2700020BDE8F0875FF4E13101608E
:1048D0000021017100214171002181710121C1710B
:1048E0000021017200214172704701000879C0B2B5
:1048F0004A7950EA02200A7B50EA02408A7C50EA58
:104900000260704713005A1E002B06D003791B0665
:10491000FCD50B78C371491CF4E77047F8B5050066
:104920000E0017003800471E00281ED0A87D002862
:1049300017D12800FFF7D9FF0400200702D540F265
:10494000F13013E0600702D540F2F2300EE0A0072C
:1049500002D540F2F33009E0E007E7D54FF47D706F
:1049600004E0E8793070761CDCE70020F2BD80B509
:10497000244801682548244A1268904701BD80B543
:10498000FFF7F5FF01BD80B51E48416820481E4A6B
:104990001268904701BD80B5FFF7F5FF01BD80B5F6
:1049A000184881681B48184A1268904701BD80B5B5
:1049B000FFF7F5FF01BD80B51248C1681648124ADD
:1049C0001268904701BD80B5FFF7F5FF01BD80B5C6
:1049D0000C48016911480C4A1268904701BD80B526
:1049E000FFF7F5FF01BD80B5064841690C48064A4E
:1049F0001268904701BD000000700440385F051048
:104A0000505F051050CD00208CCF002000A0064044
:104A100000B0064000C0064000D0064000A00E4096
:104A200000B00E4080B5FFF7DEFF01BDDFF8601576
:104A30000A6860F393420A607047DFF858150A6805
:104A400060F311420A607047037813F05F030A783D
:104A5000134303704A78920182707047027812F013
:104A6000F0020A4302707047DFF82C0500687047B7
:104A700010B5FFF7F9FF002824D0DFF8AC1409784F
:104A8000C1F3C202D040DFF814150978C1F3011355
:104A90001900C9B2002915D01100C9B20029052991
:104AA00004D9891F04D0491E06D009E0400909E055
:104AB0001421B0FBF1F005E00C21B0FBF1F001E0B6
:104AC0000021080010BDDFF864040078C00703D49B
:104AD000DFF85C04006808E0DFF858040068DFF8DD
:104AE000C0140978C1F34201C840704780B5DFF8AF
:104AF0003C040078C0B2C0F30010002802D1FFF7D8
:104B0000B7FF02E0DFF82804006802BD80B5FFF7B8
:104B1000ABFF02BD010049F69800814201D200209E
:104B200006E0DFF88004814201D2012000E002208B
:104B3000C0B27047DFF854040078000603D5DFF8F0
:104B40005804006800E000207047DFF84004007857
:104B5000000609D5DFF840040068DFF884140978FE
:104B6000C9B28909C84000E00020704780B5DFF86D
:104B700020040068800C10F00300002802D00328F5
:104B80000AD00CE0FFF7D6FFB0F5004F02D14FF48A
:104B9000004000E0002003E04FF47A7000E00020C5
:104BA00002BD80B5DFF8EC030068000C10F00300D4
:104BB000002802D0012803D005E000F0A4F803E0AB
:104BC00000F0DDF800E0002002BD80B500F07FF8C5
:104BD000DFF810140968C1F30361491CB0FBF1F060
:104BE00002BD10B504002000C0B200281AD002286F
:104BF00038D003282BD0042834D005281CD0062810
:104C00003BD007283CD008284FD00A284AD00B2890
:104C100039D00C283AD00D283BD00E283CD0132890
:104C20003DD045E000F053F8DFF8B8130968090FEC
:104C3000491CB0FBF1F03CE000F049F8DFF8A413A8
:104C40000968C1F30361491CB0FBF1F031E000F0E9
:104C50003EF8DFF890130968C1F30351491CB0FB1B
:104C6000F1F026E000F033F8DFF878130968C1F3BB
:104C70000341491CB0FBF1F01BE0FFF792FF18E085
:104C8000FFF774FF15E000F06BF812E000F05DF83C
:104C90000FE000F038F80CE000F071F809E04FF494
:104CA0007A7006E0FFF746FF03E0FFF74EFF00E0F3
:104CB000002010BD10B504006068DFF828130860FC
:104CC0002078FFF7BAFE6078FFF7B0FE10BD10B590
:104CD000DFF818030078C0B2C0F38104002C07D0BD
:104CE000022C0BD007D3032C0BD100F048F809E0BD
:104CF00000F009F806E0FFF7E6FE03E0FFF7B4FE78
:104D000000E0002010BD80B5DFF890020078800739
:104D100004D4DFF818020078800601D5002013E0E3
:104D2000FFF7E4FE00280FD0DFF8BC221178C1F3B2
:104D300041111278D209DFF8B832C9B203EB810110
:104D4000D2B231F81210484302BD80B5DFF8A40298
:104D50000078800701D4002001E0FFF7B4FE02BD17
:104D600010B5FFF7C3FE0400002C06D0FFF7AFFF1D
:104D7000C008A04201D3200000E0002010BD80B593
:104D8000DFF8A8010078400601D4002013E0FFF707
:104D9000BDFEDFF864120978C9B211F00701491CA1
:104DA000B0FBF1F0DFF854120978C9B211F01F011D
:104DB00010314843400802BD0100DFF8E0010078EF
:104DC000400704D5DFF8240200788007FAD50020D8
:104DD0007047F0B50300DFF854412078C0F3810537
:104DE000267816F00106DFF8B8010778C7F3420706
:104DF0009446BE465FFA8CFC5FFA8EFEF44527D0DF
:104E0000B4465FFA8CFCBCF1010F15D1012D06D020
:104E1000DFF8E0C19CF800C05FEA8C7C0CD5DFF8BD
:104E20007CC19CF800E01EF0FE0E8CF800E094F8C7
:104E300000C05FEACC7CFAD490F800C01CF0D00C23
:104E40005FEA420E1EF00E0E5EEA0C0C80F800C007
:104E5000DFF848C19CF800E01EF0FE0E11F00100E2
:104E600050EA0E0E8CF800E0DFF8880190F800C0E0
:104E70001CF0FC0C53EA0C0C80F800C0012D01D092
:104E8000980707D5207810F001008C465FFA8CFC5B
:104E90006045F7D10020F0BD30B40021427812F017
:104EA00007021143DFF850211170DFF850311C78F0
:104EB00014F0E004857815F01F052C431C7013785E
:104EC000047854F0400423431370DFF82021127853
:104ED0005206FAD530BC704770B504002068FFF761
:104EE00019FE0500DFF8A46021793000FFF7B6FD58
:104EF000A11D3000FFF7A8FDDFF8A0100A7812F01E
:104F0000C302280110F030000243607902430A70A6
:104F10006079002807D03078000604D5DFF8CC008F
:104F200000788007FAD570BD004006400640064074
:104F30004000002044000020F8B504000D00174890
:104F4000017811F0FD0101702A48017811F03B0150
:104F500051F080010170254E307810F01C000828B7
:104F6000F9D1264F387810F0BF00387030788006BD
:104F7000FCD42800FFF790FF387850F040003870DC
:104F800030788006FCD50020F2BD000000500640BD
:104F9000007004400480044064CF002001400640BB
:104FA0000840064001127A0070B504000D0016009A
:104FB0002000C0B2FFF700FF31002800C0B2FFF7A9
:104FC000BBFF0C48017811F03F01017007480078E1
:104FD000C0B2C0F381000328F8D1002070BD0000EA
:104FE000025006404480044003400640064006400C
:104FF000906205100040064004400640054006400F
:10500000EFF3108072B6704780F310887047425CEF
:1050100052F080024254704710B4445C14F0C00453
:1050200012F03F031C43445410BC70471CB50020D1
:10503000614908600024002C06D1604850F8240023
:1050400001F0E1FA641CF6E7684601F086FB694668
:105050005B4801F063FB13BD2DE9F74F82B00600FA
:105060009DF80C00FF2860D110275FF000085FF06A
:105070000009340024B2240A5FF0000A002C4BD04F
:10508000200030FA08F0C00743D55FF0010B1BFA8F
:1050900008F0844307FB08F0814618F101007843CB
:1050A0008145EBD2FFF7ACFF05004348016831FAB8
:1050B00009F1C90727D449464909019119F01F018F
:1050C000009101681BFA09FB5BEA010BC0F800B014
:1050D0002800FFF799FFDFF8E4B03200D2B2009960
:1050E00001985BF82000FFF797FF009901985BF8A3
:1050F0002000FFF78CFF4A463149049801F013FC69
:1051000001208246BAE72800FFF77EFF19F1010966
:10511000C3E718F10108B1E75046C0B2002801D03A
:10512000002046E041F2524043E09DF80C40270049
:105130007F0914F01F08B1460FFA89F95FEA1929AF
:105140005FF0010A1AFA07F0814506D00220B84044
:10515000814502D041F253402BE0FFF751FF05009B
:1051600015480168E140C90705D52800FFF74CFF45
:1051700041F250401DE001681AFA04FA5AEA010AA5
:10518000C0F800A02800FFF73FFFDFF830A0320092
:10519000D2B241465AF82700FFF73EFF41465AF87F
:1051A0002700FFF734FF22000549049801F0BBFBFC
:1051B000002005B0BDE8F08F6CCF002034680510EA
:1051C0000080004013F0004C03D55B42524263F173
:1051D00000039CEA210C00F0178010B5644603D34D
:1051E0004942404261F1000100F00EF8640004D32E
:1051F0004942404261F10001244203D55B425242E0
:1052000063F1000310BD0000BBBBE1B1B2F5803F0C
:1052100080F07E80022A1ED98C46B1FBF2F102FB9F
:1052200011C31B0443EA1043B3FBF2FC02FB1C3323
:1052300080B240EA0343B3FBF2F002FB103240EAD3
:105240000C4000237047022A05D98446B0FBF2F0D7
:1052500002FB10C270474AB105D100F001024908B3
:105260005FEA3000704700220023704704F048BD19
:105270000B000200002100207047904271EB030CEC
:10528000F6D3B3F5803F2FD2F0B5B3FA83F7B1FA76
:1052900081F4A7F10F0E3D1B5340CEF1200602FA18
:1052A0000EF2F3415340B5F10F0746D80F3C2C44A2
:1052B0004140C4F12006A040F1414140B1FBF3F66A
:1052C00003FB1611A2FB0645001BA94102D2761E64
:1052D0008018594180EA010221FA0EF362FA0EF2B7
:1052E00000215A403046F0BD30B4B1FBF3FC03FB63
:1052F0001C11A2FB0C45001BA94103D2ACF1010C0F
:105300008018594130BC02460B4660460021704768
:10531000B2F1807F65D3F0B5B2FA82F7B1FA81F4C9
:10532000C7F10F063D1B22FA06F307F1110EF241F9
:1053300020355A40B5F10F07B8D94140C4F12006D5
:10534000A040F1414140B1FBF3FC03FB1C11A2FB67
:105350000C45001BA94103D2BCF1010C8018594136
:105360000F2F12D30F3FC90341EA5041B1FBF3F6AF
:1053700003FB1611A2FB0645D4EBC030A94102D2B3
:10538000761E8018594146EACC3C07B34140C7F12C
:105390002006B840F1414140B1FBF3F603FB161182
:1053A000A2FB0645001BA94102D2761E8018594176
:1053B00080EA010221FA0EF3C7F1200462FA0EF22C
:1053C0000CFA07F05A402CFA04F13043F0BD80EAA1
:1053D000010221FA0EF3002162FA0EF260465A40F1
:1053E000F0BD8C46B1FBF2F102FB11C31B0243EA94
:1053F0001063B3FBF2FC02FB1C331B024CEA0020DF
:1054000043EA1063B3FBF2FC02FB1C331B024CEAC1
:10541000002043EA1063B3FBF2FC02FB1C331B02C7
:105420004CEA002043EA1063B3FBF2FC02FB1C329F
:105430004CEA00200023704700F10103810704D0EB
:1054400010F8011B820781B1FAD10268A2F1013183
:10545000914311F0803104BF50F8042FF6E709BAE8
:10546000B1FA81F100EBD100401CC01A704710F175
:10547000080141605FF0FF31816010F10801C160F7
:1054800010F10801016100210160704742684A6023
:1054900093688B60936859609160086103685B1C36
:1054A0000360704710B40B6813F1010F01D102695A
:1054B00007E010F1080254682468A34201D352683F
:1054C000F9E754684C604C68A1608A6051600861DB
:1054D0000468641C046010BC7047010008698A6895
:1054E0004B689A604A688B685A6042688A4201D168
:1054F0008A68426000220A610268521E02600068E7
:10550000704730B40EE00268436802440830DC079C
:1055100044BFA9F10104E31852F8045B43F8045BAB
:10552000091FF9D150F8041B0029ECD130BC704799
:105530001FB5002400F0F3F9DFF8680400680028C4
:1055400010D0002003900020029000200190112034
:1055500000900023B422DFF850140FF20510FDF77D
:105560007DF80400002C07D1502080F31188BFF390
:105570004F8FBFF36F8FFEE7200004B010BD2DE901
:10558000FF4704000D0016001F00DDF830805FF0BB
:105590000009002C07D1502080F31188BFF34F8FF2
:1055A000BFF36F8FFEE7DFF8FCA3DAF800000028F6
:1055B00022D0009501960294062D15DAFDF7BEFE65
:1055C000022808D1002342466946DAF8000003F0B9
:1055D0007CF8814610E0002300226946DAF80000DA
:1055E00003F073F8814607E000233A006946DAF8D1
:1055F000000003F039F98146484604B0BDE8F08761
:10560000F8B505000E00DFF8A4030068C068C7689D
:10561000381DFFF762FFF86901281BD12B0032000B
:10562000B9694919380000F08BF8012812D100201F
:10563000009000232A0000213800FFF7A0FF04009B
:10564000002C07D1502080F31188BFF34F8FBFF398
:105650006F8FFEE73800796A8847F1BD00000000CF
:1056600038B50400684600F042F8050000992800AB
:1056700000F003F800F08CF8F4E77CB505000C00AE
:10568000FDF7D5F9684600F047F8060000980028B5
:105690002AD1002C08D1AE4206D3FDF7E4F931003F
:1056A0002800FFF7ADFF21E0002C08D0DFF8000351
:1056B00000680068002801D1012400E000242200D5
:1056C000A91BDFF8E002006803F086FBFDF7CBF9C9
:1056D00000280BD15FF08050DFF8D8120860BFF3CC
:1056E0004F8FBFF36F8F01E0FDF7BDF973BD010070
:1056F000DFF8B82210680068002801D1012000E01E
:105700000020C0B208600868002803D11068C06893
:10571000006800E00020704770B50400FDF710FA43
:105720000500DFF894623068854204D200F0B1F8D9
:105730000120206001E0002020603560280070BD5D
:105740002DE9F04104000D0016001F005FF0000875
:1057500065602461AE420CD3F01BA169884202D37C
:105760000120804611E0211D91480068FFF79AFE54
:105770000BE0BE4204D2BD4202D30120804604E0C9
:10578000211D8A480068FFF78DFE4046BDE8F08184
:10579000F8B586B00023002201A98248006803F012
:1057A00028F9002873D0019800280ED502AD002DED
:1057B00007D1502080F31188BFF34F8FBFF36F8F55
:1057C000FEE7A96868682A68904701980028E1D434
:1057D000039806007069002802D0301DFFF77DFE97
:1057E00005A8FFF799FF0700019800280ED00228AE
:1057F0000CD00BD3042830D02ED3062806D041D3AA
:10580000082829D002D3092827D03FE0029B3A007C
:105810000299B06941183000FFF792FF01281AD1B0
:105820003000716A8847F069012814D10020009087
:105830000023029AB069821800213000FFF79FFE12
:105840000400002C07D1502080F31188BFF34F8F44
:10585000BFF36F8FFEE79DE79CE70298B061B069E8
:10586000002807D1502080F31188BFF34F8FBFF37A
:105870006F8FFEE73B003A00B169C9193000FFF7AE
:105880005FFF87E7300000F0CAF983E782E707B0DF
:10589000F0BD2DE9FC41DFF81481D8F80000006864
:1058A000002833D0D8F80000C06800680500D8F898
:1058B0000000C068C0680700381DFFF70EFE380002
:1058C000796A8847F8690128E5D1B8694019060066
:1058D000B54207D27E603F61391DD8F80000FFF75E
:1058E000E1FDD8E70020009000232A0000213800C5
:1058F000FFF745FE0400002C07D1502080F31188EB
:10590000BFF34F8FBFF36F8FFEE7C4E7D8F80000F7
:1059100027490A68C8F800200860BDE8F38170B51F
:10592000FDF7DBFE1F4C2068002823D1234D280003
:10593000FFF79DFD224E3000FFF799FD1B480560E3
:105940001B480660002210210A2002F055FE20604C
:105950002068002807D1502080F31188BFF34F8FB3
:10596000BFF36F8FFEE72068002803D01549206839
:1059700003F00AFAFDF7CBFE70BDF8B584B0040061
:105980000D0016001F007FF00100009001940295A9
:10599000039600233A0069460248006802F064FF5B
:1059A00005B0F0BD94D000207C6605108CD000209E
:1059B00090D0002004ED00E098D0002070CE0020B0
:1059C00084CE00208466051081607047C1607047F6
:1059D00010B450F8213033F470631400E4B22402A0
:1059E00014F47064234340F8213010BC704710B5A4
:1059F000040008215C48FCF72AFA5C490878002872
:105A000008D15FF080505A490860BFF34F8FBFF351
:105A10006F8FF2E7002008700020FCF704FFE8E732
:105A200038B504000D0029005248FCF7A5FAFEE73E
:105A300010B504004FF400514F48FFF7C7FF40F284
:105A4000DC50FCF7B4FEF5E710B5040041F28830F5
:105A5000FCF7ADFE0120494988714CF25030FCF74B
:105A6000A6FE062217214648FFF7B2FF0020FCF7EA
:105A7000DAFEEBE710B5040040480188652903DB36
:105A80000088B0F5C87F03DB01213E48FFF79CFF8B
:105A90003220FCF78CFEEFE710B504003A4800789E
:105AA000012807D139480168491C01600120FCF731
:105AB0007EFEF3E70020354908600020FCF7B3FEC6
:105AC000ECE71FB5FEF7E0FA314C00200390002010
:105AD000029001940120009000235A222D492E4863
